:1000000017C1000032C100000C9466090C942E0C3C
:100010000C94450C32C7000028C1000026C1000026
:1000200024C1000022C1000020C100000C941D0A60
:100030001CC100000C94F6140C9425150C945C154E
:1000400014C1000012C1000010C1000041C2000034
:100050000CC100000AC100008DC400009C0CA90C5A
:10006000D10DD10DD10DD10DF60CF60CF60CF60C10
:10007000F60CFE0D040E040E530EB40CC00CCC0C8A
:10008000D80CE40C260D350D550DC70ECB0E4A10BD
:100090004A104A104A10620F1E0F900F9C0FF80E64
:1000A00015101B101B103B10D30EDF0EDF0EF80EC9
:1000B000F80E5610AE0FB60F9C127712AF12EC115D
:1000C000AF12AF12FB116412AF12AF12AF12AF1228
:1000D0009012AF12AF12AF12AF122012FB11F1113A
:1000E000AF12E4112012AF125312000203040506EE
:1000F0000708090A3935423E0C0D0E0F1011121374
:10010000141502031B1918000128241F1B200116B7
:100110000721221F20200D1E2021221E20200D1F1E
:1001200020200F1C2020050A2020051F200B011F66
:10013000241616161620160C16200E1C1C000F0F67
:1001400020001D202000120E1D0B0A2626200E0264
:1001500020200E03200E0E121C3F065B4F666D7DA5
:10016000077F6F777C395E7971635473763008400E
:1001700001484109495054105C00332738583E78F3
:100180006E00001F003B005A0078009700B500D4B5
:1001900000F300110130014E011F1C1F1E1F1E1F06
:1001A0001F1E1F1E1F20570020580020453A002008
:1001B00049733A200020423A2000424F4F54002019
:1001C000533A200020493A200020563A2000443A71
:1001D0002000563A204F70656E48523230205357F7
:1001E0002076657273696F6E20302E393920627502
:1001F000696C64204E6F76203236203230313320E5
:1002000030313A33363A303320245265763A203250
:10021000373220240A0013811181288231020D0116
:1002200030020C016A816E817081000000000000C4
:1002300011241FBECFEFD4E0DEBFCDBF11E0A0E0A0
:10024000B1E0ECE0FFE202C005900D92AE30B107E4
:10025000D9F712E0AEE0B1E001C01D92A63CB107B3
:10026000E1F70E94A5150C948417CACEA0E0B0E077
:10027000ECE3F1E00C944717DB0190E09C01220FC6
:10028000331F220F331FF901EB5EFE4FAB016627D0
:1002900057FD6095762FC080D180E280F3804C0DB1
:1002A0005D1D6E1D7F1D4083518362837383C091EA
:1002B000000110911D01CF30D0F00FE0089FE00148
:1002C000099FD00D1124C10FD11DCC0FDD1FC25EBF
:1002D000DE4FC880D980EE24D7FCE094FE2C4C1968
:1002E0005D096E097F0940835183628373834FE008
:1002F000489FF001499FF00D1124E10FF11DEE0F11
:10030000FF1FE25EFE4FB183A083EC01CC0FDD1F27
:10031000CF5EDE4FF901EB5EFE4F6081718182811D
:1003200093812FE030E040E050E00E9421173983B4
:100330002883CDB7DEB7E8E00C94631781E08093A3
:100340005B019CE0909364009CE890937A0010928B
:100350007B009EE590937C0080935A010895CF9393
:10036000DF9380915B018F5F80935B01833069F045
:1003700038F4823009F0A1C08DE880937A0018C06B
:100380008430D1F0853009F198C020917800309107
:10039000790040E050E060E070E381E190E00E948D
:1003A000FF16B90180E062DF8B9A82E480937C00C3
:1003B00081E080935A0187C0809178009091790004
:1003C0009093100180930F01F3CF2091780030912A
:1003D000790080910F0190911001AC014F5F5F4F48
:1003E0004217530724F001972817390744F4309334
:1003F000100120930F0184E080935B0164C0409161
:10040000AF0250E05395E0EBF2E0C1E08191BA0118
:10041000680F711DCB01261737072CF0CF5FC63050
:1004200019F0AB01F3CFCA01281B390BACE0BEEFCA
:100430000E949E16D0E0FE01E155FD4F208130E084
:1004400040E050E00E94211781E090E08C1B9D0B62
:10045000E4EFF1E08E9FB0018F9F700D9E9F700DB5
:1004600011246455724F620F731F81E0FFDE80918B
:100470001D0190E001966FE070E00E94EC16809301
:100480001D01892B99F48091350290E0FC01EE0F5B
:10049000FF1FEA5CFD4F209113013091140131835D
:1004A000208301968F7199278093350280910001F6
:1004B0008F3018F48F5F809300018B988DE08093CC
:1004C0007A008093640080915A01DF91CF91089562
:1004D000F29A189591E0833009F090E09195E6E763
:1004E000F2E0919382E0E838F807D9F791E0909331
:1004F00001018091E40088608093E40090935C01A6
:10050000089580E0E7DF809197028093E70085EA15
:100510008093E50086E08093E600E4EEF0E080EC76
:10052000808380818860808381E0809301010895C9
:10053000EF92FF920F93CF93DF937B01082FCAEEC8
:10054000D0E0FE01849166270695F794E79408F4BD
:1005500063E009D02196C230A1F7DF91CF910F91CE
:10056000FF90EF900895982F9695969596958770A1
:1005700021E030E001C0220F8A95EAF7892F90E050
:10058000FC01EA58FD4F60FF03C04081422B04C0CC
:100590005081422F409545234083FC01EA58FD4F8E
:1005A000818561FF03C0822B818703C020952823AA
:1005B00021876150623068F080910101813091F0B3
:1005C00080E090E0FC01EA58FD4F30812185321730
:1005D00011F082E005C001968930910599F781E01C
:1005E000809301010895CF92DF92FF920F931F93A2
:1005F000CF93DF931F92CDB7DEB7E62FF0E0E75F32
:10060000FE4F0491E82FF0E0E75AFE4FF49082E0AD
:10061000C82E81E0D82E11E0F6018491800F912F31
:100620009F2111F0642F01C060E049839CDF110F0E
:10063000FFEFCF1ADF0A498189E0C81681E0D806AA
:1006400059F70F90DF91CF911F910F91FF90DF909D
:10065000CF900895643018F4883208F4C4CF089518
:100660001F93CF93DF93C82F162FD42F8F70F2DFF5
:1006700061E0610F4D2F8C2F82958F70EBDFDF9142
:10068000CF911F910895633008F4EACF0895CF9376
:10069000DF93D82FC62F462F62E0892FE1DF4C2F42
:1006A00060E08D2FDDDFDF91CF9108951F93CF9311
:1006B000DF93C62FD42F633070F4843660F46AE081
:1006C0000E94BF16182F892F6C2FC4DF61E06C0FBA
:1006D0004D2F812FBFDFDF91CF911F910895CF93D1
:1006E000DF93C62F803127E2920710F08FE097E268
:1006F00064E670E00E94D816962FD82F4C2F62E047
:10070000892FD4DF4C2F60E08D2FD0DFDF91CF9188
:1007100008951F93CF93DF93C62FD42F6230B0F488
:10072000883E23E0920710F087EE93E022E02C0F42
:1007300064E670E00E94D816962F182F4D2F622F76
:10074000892F88DF4D2F6C2F812FB0DFDF91CF9164
:100750001F9108950F931F93CF93DF93162FEC01F2
:10076000C9318CEFD80714F4C9E1DCEF0D2F001F5D
:100770000027001F19F0D195C195D109CE016AE07B
:1007800070E00E94EC16CB01412F61E0C2DF002334
:1007900021F0412F63E086E106C0C83ED34024F437
:1007A000412F63E080E21FDF412F60E08CE01BDF20
:1007B000DF91CF911F910F910895EF92FF920F93C8
:1007C0001F93CF93DF93F62E94E0899F800111242D
:1007D000C0E0D0E0035F1E4F93E0E92EF801EC0F7C
:1007E000FD1F84916E2D6C1B4F2D34DF2196C4307C
:1007F000D105A1F760E08BE3B6DECDB7DEB7E6E06A
:100800000C946517CF93DF93D82FC62F893011F43E
:100810008CE007C08D3311F48DE003C08E3318F0E7
:100820008BE0CBDF19C0462F62E086953FDFD0FF1B
:1008300002C085E001C080E04C2F61E00BDFD431C5
:1008400020F44C2F63E080E2CEDE4C2F60E08CE0A1
:10085000CADE6C2F8BE387DEDF91CF910895E82FFE
:10086000F0E0E651FF4F84917ECE80915E018F5F74
:1008700080935E018D3058F080915D018F5F8170B3
:1008800080935D0110925E0181E080935C01809114
:100890005C01882309F464C010925C01A0915D01A1
:1008A00089E08A9FD0011124AA58BD4F9C91909352
:1008B000EC00A0915D018A9FD0011124AA58BD4F80
:1008C00011969C919093ED00A0915D018A9FD001BB
:1008D0001124AA58BD4F12969C919093EE00A091BE
:1008E0005D018A9FD0011124AA58BD4F13969C9197
:1008F0009093F100A0915D018A9FD0011124AA5824
:10090000BD4F14969C919093F200A0915D018A9F37
:10091000D0011124AA58BD4F15969C919093F300D5
:10092000A0915D018A9FD0011124AA58BD4F16964F
:100930009C919093F600A0915D018A9FD0011124B3
:10094000AA58BD4F17969C919093F700E0915D01D6
:100950008E9FF0011124EA58FD4F80858093F800A6
:1009600080910101813029F48091E400877F809398
:10097000E4000895F39A189590919202E92FF0E01F
:10098000E856FE4F8491923029F49091930293702F
:1009900009F48DE108956F927F929F92AF92BF927A
:1009A000CF92DF92EF92FF920F931F93CF93DF933B
:1009B0001F92CDB7DEB7C82E3B01882311F048E067
:1009C00001C042E0A12CBB24BA9427E0E22EF12C16
:1009D000DC2CDD0CDD0CDD0C98E0992E9D0C00E08C
:1009E00010E0D914A0F48D2D90E04983FCD59F70C0
:1009F0004981803A25E0920740F48017910728F05A
:100A00006816790610F0BD2C8C01D394EACFB7FE9E
:100A100013C0CC2049F08C2D90E00596B7010E94C0
:100A2000EC16CC24C394C80EA394A41628F480EA30
:100A3000682E85E0782ECCCF8B2D0F90DF91CF9153
:100A40001F910F91FF90EF90DF90CF90BF90AF90EC
:100A50009F907F906F90089580918A02873089F4EB
:100A600080919202833031F481E09091900299312B
:100A700048F407C08A3029F481E0909190029831BF
:100A800008F480E00895885E68E10E94BF169093A4
:100A90008F020895845C6CE30E94BF1690938802D5
:100AA0000895845C6CE30E94BF16909391020895B0
:100AB0008830F0F46830E0F42430D0F44C3D35E078
:100AC000530710F04FEF5FE030E0322F22273295CE
:100AD000307F242B352B462F50E0B9019A01E8E0F6
:100AE0008E9F200D311D1124C901A1D581E00895EB
:100AF00080E00895CF93DF93EA0170E09B0148E026
:100B0000849F200D311D1124C9016DD5292F2295F7
:100B10002F7028839F70DF91CF910895A0E0B0E0FF
:100B2000E4E9F5E00C944717082FC12CD12C76018D
:100B300017E1C0EAD5E0BE01802F2DDF87FD06C09A
:100B4000992787FD90954FD59C0102C020E030E0A9
:100B500091E0A901442750734115504208F490E0F8
:100B60003F702C173D0718F4E90121970EC0CFEF15
:100B7000DFEF0BC0992311F06894C0F8111624F42C
:100B8000CC0CDD1CEE1CFF1C11508CE318029001F4
:100B90001124C217D30774F31C161D0664F2C70193
:100BA000B601CDB7DEB7E8E00C946317CF93DF93BF
:100BB00080919202E82FF0E0EE0FFF1FE158FE4F08
:100BC000C591D49190919002C90FD11D409193028B
:100BD000833020F0842F837009F4219650E0CA01FD
:100BE00001979C0197FF03C09A012E5F3F4F3595F7
:100BF000279535952795240F351F6CE97FEF0E94C7
:100C0000EC16260F371F2B5F3F4F2C0F3D1FC901DE
:100C100067E070E00E94D8168F5F80938A029091FF
:100C2000B602913009F080E079DF6093BF027093E3
:100C3000C0028093C1029093C202DF91CF910895C8
:100C4000809170008E7F8093700088E08093B60062
:100C50001092B2008091B00085608093B0009091B6
:100C6000B6008091B60084709170892BC1F78FEF28
:100C700087BB8091700081608093700010928B021E
:100C800010928C0210928D0210928E028CE0809352
:100C90008F0210928802109291028FE0809390024E
:100CA00086E0809392028DE0809393027FCFCF9372
:100CB000C82F62DE682F8FEF8C0F860F0E94BF1641
:100CC0009F5F9093900272DFCF910895855F6CE0F3
:100CD0000E94BF169F5F9093920268CF8093930209
:100CE00065CFFF920F931F93CF93DF93F82E8091E0
:100CF0008F02C0918802D0E09CE3899FC00DD11D76
:100D000011248091B602813019F410918A0201C039
:100D100010E0BE01812F3FDE082F992787FD9095B7
:100D200062D407FD17C0FF2051F09C013F702C17C3
:100D30003D0781F405950595059501130BC0FC0150
:100D4000EF2FFF27E295EF70E370FF27E856FD4F86
:100D5000808101C080E0CDB7DEB7E5E00C94661776
:100D6000CF9380918B0290918C02A0918D02B091D3
:100D70008E020196A11DB11D80938B0290938C026F
:100D8000A0938D02B0938E02809191028F5F8C337D
:100D900020F48093910280E06EC0109291028091C5
:100DA00088028F5F809388028C3308F463C01092AE
:100DB000880280918F028F5F883118F480938F02B0
:100DC00037C010928F02D8DD909190029F5F8917F3
:100DD00018F09093900214C091E09093900280914B
:100DE00092028F5F8D3018F48093920207C0909327
:100DF0009202809193028F5F8093930210928902F6
:100E000080918A0267E00E94BF169F5F90938A02DA
:100E10008091B602813011F080E001C0892F7EDE22
:100E20006093BF027093C0028093C1029093C2028C
:100E3000C0919202C33051F480918F028230D1F47C
:100E40000BDE8823B9F0C0938F0214C0CA3091F42E
:100E500080918F02833071F48091890281110AC0E0
:100E6000FBDD882339F082E080938F0281E080935C
:100E7000890201C081E0CF910895F19A189514BAC2
:100E80002F980895E82F811115C010926E0080915F
:100E90006B008F7E80936B007398649B02C089E522
:100EA00001C089E70E94A510EADF88E484BD1092A2
:100EB00094020895809194028E1709F468C080917D
:100EC0009402882389F010926901109268011092AF
:100ED000630110926201109261011092600182E040
:100EE0008093020110929402E0939402739A4091CD
:100EF000AA0250E080910401811103C02091A9024F
:100F000002C02091A80230E0249FC001259F900DCF
:100F1000349F900D112464E670E00E94D81683E09F
:100F2000660F771F8A95E1F77093670160936601FA
:100F30002091660130916701220F331F220F331F6A
:100F4000309365012093640181E085BB16BC8093DA
:100F50006E008CB180935F0180916B008061809303
:100F60006B008091A50287BDEF3F29F488E084BB28
:100F70002F9889E604C080E184BB2F9A89E784BD5D
:100F8000649B02C088E501C088E70C94A510089511
:100F9000CF93C82F811116C080E074DF10927101C9
:100FA0001092700110926F0110926E018EEF80937B
:100FB000040185E08093030180912E02877F809356
:100FC0002E0231C080910301882321F0815080934B
:100FD00003010FC080910401813059F482E08093B5
:100FE000040128EE33E030936D0120936C0181E021
:100FF00049DF809104018E3FB1F4C33059F48FEF83
:101000009FEF9093AE028093AD0286E18DD287E18F
:101010008BD206C0C23021F41092AE021092AD0203
:1010200081E080930401CF91089580916E019091A9
:101030006F018B309105BCF020910401211113C088
:1010400040917001509171016AE0649F9001659F29
:10105000300D11246AE070E00E94EC16C9010E9474
:10106000EC16862F08958FEF089580916E01909170
:101070006F01892B21F081E090910401911180E0B2
:101080000895482F8091040181113DC0443649F4F0
:1010900080916E0190916F0190936D0180936C012E
:1010A0001CC0411105C010926D0110926C0115C059
:1010B00020916E0130916F013595279535952795D3
:1010C000429FC001439F900D112469E170E00E948E
:1010D000EC1670936D0160936C0180919402811104
:1010E00012C0209170013091710180916C0190913A
:1010F0006D018217930714F48FEF04C02817390786
:1011000014F481E0BFCE089580916A0190916B0143
:1011100081329E4408F043C08091020181113CC09D
:1011200020916A0130916B012C5F3F4F63E036954F
:1011300027956A95E1F78091AA02281B3109409111
:10114000AB02429FC001439F900D112464E670E002
:101150000E94EC168091AC0290E0861797074CF045
:1011600022273327281B390BCB01621773070CF496
:10117000C90127B5820F911D2091A50230E02817E3
:10118000390744F04091A40250E09C018417950770
:101190000CF49A0127BD03C081508093020147B52A
:1011A00060916A0170916B01809194020C94B3126A
:1011B000CF93DF93C091940280E064DE809164015C
:1011C0009091650120910401892B21F0222309F4DB
:1011D00067C021C0C13009F03CC0C0917001D091FE
:1011E0007101223069F5D0936F01C0936E01809137
:1011F000AD029091AE02892BB9F4C436D1055CF0F2
:10120000D093AE02C093AD0286E18ED187E18CD13E
:101210001092040145C08FEF8093040180912E024B
:10122000886080932E023CC08FEF2CDEC85ED340D6
:10123000D0936D01C0936C0183E08093040130C0B2
:1012400080916E0190916F01909371018093700174
:1012500027C0CF3F29F5233089F410920401209153
:1012600070013091710180916E0190916F01821B2C
:10127000930B90936F0180936E010EC0809170016B
:1012800090917101853691053CF0C09304018091E5
:101290002E02886080932E021092710110927001CC
:1012A0008091040181110FC080916E0190916F01B6
:1012B0008436910544F48FEF8093040180912E02CF
:1012C000886080932E02DF91CF9108951F920F9234
:1012D0000FB60F9211242F933F934F935F936F9309
:1012E0007F938F939F93AF93BF93CF93EF93FF938E
:1012F000CCB1C0FD0AC08091C10080698093C1005B
:1013000080916B008E7F80936B0080916B0084FFD7
:1013100080C080915F018C2784FF7BC08091680131
:10132000909169012091620130916301821B930BBE
:10133000209168013091690130936301209362012B
:10134000C4FD5CC02091A70230E0220F331F281794
:10135000390708F05EC020916001309161018091F1
:10136000A60290E0880F991F8217930708F043C0E8
:10137000809170019091710120919402820F911DD2
:1013800027FD9A9590937101809370018091680177
:101390009091690190936B0180936A0110926101B1
:1013A000109260011092690110926801109263011D
:1013B00010926201F49A2091700130917101809134
:1013C0006C0190916D012817390761F458DD88E4AC
:1013D00084BDF59A80916B008F7E80936B00109294
:1013E0006E0017C08091660190916701909365012E
:1013F000809364010EC08EE7A8D60BC020916001D7
:10140000309161012817390720F49093610180938E
:101410006001C0935F01FF91EF91CF91BF91AF91B8
:101420009F918F917F916F915F914F913F912F91FC
:101430000F900FBE0F901F9018951F920F920FB62E
:101440000F9211242F933F934F935F936F937F934A
:101450008F939F93AF93BF93EF93FF93809164011A
:1014600090916501892B99F08091680190916901B3
:101470000196909369018093680180916401909135
:1014800065010197909365018093640113C0809179
:1014900068019091690190936B0180936A01EFDC80
:1014A00088E484BDF59A80916B008F7E80936B00F9
:1014B00010926E00FF91EF91BF91AF919F918F912C
:1014C0007F916F915F914F913F912F910F900FBE40
:1014D0000F901F90189520E08030920728F09C0113
:1014E00023703327232B49F4F999FECF92BD81BD98
:1014F00060BDF894FA9AF99A78940895F999FECF14
:1015000092BD81BDF89A80B50895F999FECF70E03B
:101510006050704094E0899F600D711D112472BD70
:1015200061BDF89A80B50895EF92FF920F931F93D3
:10153000CF93DF93F82E86E28F1528F10F2D10E060
:10154000E801C956DD4FE88060E08F2DDEDFE81648
:10155000D1F0E88062E08F2DD8DFE81628F461E052
:101560008F2DD3DF888306C0E88063E08F2DCDDF29
:101570008E15A8F3C801880F991F880F991F6881DD
:1015800080509040A8DFCDB7DEB7E6E00C94651739
:10159000FF920F931F93CF93DF93F82E10E0C7E9CC
:1015A000D2E0F1100AC060E0812FAFDF082F8883FE
:1015B00062E0812FAADF081728F461E0812FA5DF00
:1015C000888306C0088163E0812F9FDF8017A8F31E
:1015D000812FAADF21961F5F173219F7CDB7DEB72B
:1015E000E5E00C9466171F93CF93DF9320910501DC
:1015F00030E08217930791F0EC01CC0FDD1FC85249
:10160000DF4FCE0101967ADF182FCE0177DF212F31
:1016100030E0322F2227280F311D04C0209195027F
:1016200030919602C901DF91CF911F910895A1E0F9
:10163000B0E0EDE1FBE00C944B17880F991F803868
:10164000910558F48C0108521F4FC801798343DF7C
:101650007981672FC80101963EDF2196E4E00C9462
:1016600067172091750120768091BE02822785FF41
:1016700013C08091730190917401222311F02036E0
:1016800011F4826001C081609093740180937301B2
:10169000109276012093BE02209175012E70309138
:1016A0007801231709F464C0222321F1311122C0EB
:1016B000809106018823F1F0243031F48091730188
:1016C0009091740184600FC0223031F480917301D5
:1016D00090917401886007C0283061F48091730193
:1016E000909174018061909374018093730181E003
:1016F0008093720180917201882319F1343041F492
:101700002223F9F08091730190917401806213C0DB
:10171000323041F42223A9F0809173019091740139
:10172000806409C0383069F4222359F08091730134
:10173000909174018068909374018093730110926A
:10174000720180910601882369F010920601809150
:10175000B2008E5C8093B300B99A80917000826071
:101760008093700020937801109277011092760197
:10177000089580917801811114C09091760181E0E3
:10178000890F80937601811103C0909376010895AB
:10179000843109F044C0809173019091740190628A
:1017A0003AC02091770191E0920F909377019111C7
:1017B00003C0209377010895943089F58830C9F0EB
:1017C00028F4823079F0843031F008958A30C1F005
:1017D0008E30E1F0089580917301909174018062E0
:1017E000916019C08091730190917401806492603E
:1017F00012C08091730190917401806894600BC055
:101800008091730190917401986005C0809173017B
:101810009091740190619093740180937301089585
:101820002098289A0000000083B180952898209A7B
:1018300090912E0280FF05C0946090932E0280E06C
:1018400008959B7F90932E0281FD04C082FF04C007
:1018500083E0089582E0089581E008951F920F9239
:101860000FB60F9211248F9326982E9AF09A0000AB
:1018700083B180958E76809375012E98269A8F91EC
:101880000F900FBE0F901F9018950F930FB70F93E7
:1018900001E000930601009170000D7F009370003D
:1018A0000F910FBF0F911895CF93C82F80E00E9422
:1018B0006A0263E08C2F0E94B302CF910895CF9308
:1018C000DF93D82FC62F811160E08CE20E94B30213
:1018D0008FEF8D0F823010F060E001C06C2F85E437
:1018E0000E94B302D23010F460E001C06C2F8DE290
:1018F0000E94B302DF91CF910895FF920F931F933F
:10190000CF93DF93209173013091740120FD06C0C5
:101910008901169507950170019501C001E090912C
:10192000C302492F50E04731510508F067C1FA0161
:10193000E25DFF4F0C947417882319F082E08093C6
:101940000701809107018111CBC181E08093C3021F
:10195000C8C1882319F082E08093070180910701B4
:101960008111BEC18FE0A4C1002321F080919302B8
:10197000800FB4D98091730182FFB2C180E131C080
:10198000002321F080919202800FA0D980917301F1
:1019900082FFA6C181E125C0002321F08091900241
:1019A000800F85D98091730182FF9AC182E119C0AD
:1019B000002321F080918F02800F65D88091730100
:1019C00082FF8EC183E10DC0002331F08091880237
:1019D000800F60D880E065D88091730182FF80C15C
:1019E00087E08093C3021092300264C123FF07C0D6
:1019F0009F5F9B3009F406C19093C3025BC1809145
:101A00007F01882351F0277F3770232B09F468C1A9
:101A100085E0809307018BE04BC1002351F0965085
:101A2000923038F4802F99D786E08093C30281E00A
:101A300001C080E09091730194FF02C08FEF03C05A
:101A400097FF4FC18EEF9ED786E032C1882351F0B9
:101A50008091B602813019F480918A0201C080E041
:101A600080937E0185E18093C302002361F0409161
:101A70007E01802F992787FD9095840F911D877097
:101A8000992780937E0122FFB6C086E18093C3022E
:101A900010927A0181E090917E01911101C080E065
:101AA0008093B6028FE140DD66C08823A1F04BE74A
:101AB00051E060917A0180917E011CD890937D0164
:101AC00080937C01813A954030F080EA95E09093D4
:101AD0007D0180937C010023E9F080917C0190914D
:101AE0007D016AE070E00E94D816CB018F569F4FAF
:101AF000800F911D07FD9A9561E970E00E94D8164C
:101B00004AE0489F9001499F300D112430937D0198
:101B100020937C018091730183FF09C080917B0138
:101B200090E005968370992780937B01D9C082FF4E
:101B300035C040917C0150917D0120917B016091E5
:101B40007A0180917E010E94580580917A018F5F11
:101B500080937A01883068F080917E01882331F08B
:101B600067E00E94BF169F5F90937E0185E180939E
:101B7000C302109230028091B602813019F4809134
:101B80008A0201C080E00E948E056093BF027093BC
:101B9000C0028093C1029093C2028CC084FFA0C097
:101BA00031C0882339F0E92FF0E0EA56FD4F8081FB
:101BB00080937E01002379F080917E01800F8E3327
:101BC00008F08DE380937E0180917E01893018F4C6
:101BD00089E080937E0122FF0EC0E92FF0E0EA56F3
:101BE000FD4F80917E0180838FEF890F9DDC809176
:101BF000C3028F5FF6CE24FF73C004C0809107013B
:101C000081116EC087E054C024FDFCCF23FF02C0C9
:101C10008EE04EC022FF0BC09D3029F48091080158
:101C200083DC8CE001C08DE08093C30259C0112792
:101C300007FD10959C3071F4809108019801280FE0
:101C4000311DC901879667E270E00E94D816809323
:101C5000080146C062E08091080157DCF82EC82FC9
:101C6000D0E063E08091080150DC682F70E06C1BCD
:101C70007D0B6F5F7F4F40910801E42FF0E0E95644
:101C8000FD4F80819801280F311DC9018C1B9D0BD0
:101C9000860F971F0E94EC16F80EF082411120C0AB
:101CA0000E9481021DC024FDADCF23FF05C08CE042
:101CB0008093C30281E015C080917901202F3327E2
:101CC00027FD3095280F311D235F3F4FC9016DE07F
:101CD00070E00E94EC168093790181E0011101C04F
:101CE00080E0209173013091740190917F0133FF66
:101CF0000CC085E08093070181E0911180E0809322
:101D00007F01882391F08BE015C0911116C034FF3C
:101D100002C08CE00FC032FF02C08FE00BC030FF6A
:101D200002C084E107C035FF02C087E003C031FF75
:101D300004C082E08093C30202C0882381F0C09176
:101D40000801C73258F460E08C2FDFDBEC2FF0E0A5
:101D5000E956FD4F808387E28093080181E010926D
:101D6000740110927301CDB7DEB7E5E00C946617ED
:101D7000CF93DF93C82F4091C30250E04731510504
:101D800008F094C1FA01EB5BFF4F0C94741783E0E9
:101D90000E946A028BC18BE387DD63E089E990ECE6
:101DA0000E94470383C180E00E946A0280919302EF
:101DB00090E061E08053984F0E946F0377C18BE3FE
:101DC00073DD8091C302803111F441E001C043E032
:101DD00060E0809192020E9456038091C30281319B
:101DE00011F441E001C043E062E08091900223C021
:101DF000882359F080E00E946A0263E08BE30E942E
:101E0000B30263E083E20E94B3028091C302823195
:101E100011F441E001C043E062E080918F020E9432
:101E200056038091C302833111F441E001C043E0C5
:101E300060E0809188020E94560338C180910401BD
:101E40001816E4F48BE030DD43E063E08AE00E94A2
:101E50002A038091AD029091AE02019629F443E0ED
:101E600062E08DE00E942A03809104016AE093D72A
:101E7000892F43E060E00E942A032DC0CC2311F09B
:101E80008BE012DD80912E028823A9F087FF02C02B
:101E900061E00DC082FF03C063E080E109C083FF01
:101EA00003C063E081E104C086FF15C063E08FE0FA
:101EB0000E94DD0310C080912F02882319F063E097
:101EC0008EE0F6CFCC2311F08BE0EEDC63E0809166
:101ED00031020E94020480910C01882341F090910C
:101EE000300280913102981302C063E001C060E0CB
:101EF00088E10E94B30280910C01882311F060E018
:101F000001C063E082E30E94B3026091BF0270915E
:101F1000C0028091C1029091C2020E949802C6C084
:101F2000882311F08BE3C0DC63E080911301909172
:101F300014010E94AA03BAC0882319F080E00E940D
:101F40006A0273D8853638F470D843E060E090E0D8
:101F50000E948903ABC063E08AE005C08AE1A4DC8B
:101F600061E080917E010E94DD03A0C080E00E94BC
:101F70006A0263E08BE30E94B30263E083E20E94A3
:101F8000B30263E08AE10E94B30280917E019091E6
:101F90007A0128E0829F900D1124909305012091F1
:101FA0007B0130E0322F22273295307F40917C0137
:101FB00050917D01240F351F309396022093950296
:101FC0000E948E050E9498028FEF809305018091F8
:101FD0007C0190917D01CCE3D0E0BE01E9D6862F53
:101FE00061E00E942F0480917C0190917D01803AF4
:101FF00025E0920790F4BE01DBD6862F41E062E037
:102000000E94560380917C0190917D01BE01D0D643
:1020100041E060E00E94560304C061E089E00E9454
:10202000DD0361E080917B0140C080E00E946A0294
:1020300063E088E098CF83E00E946A028091C30247
:102040008C3011F441E001C043E062E0809108016E
:102050000E9443038091C3028D3011F441E001C01E
:1020600043E0E0910801F0E0E956FD4F60E0808137
:102070000E9443031BC083E00E946A0280917901A1
:102080008ED263E00E94470361E0809179010E9453
:102090002F040CC08BE308DC61E080917E010E947C
:1020A00002048091C30263E0825009DCDF91CF918A
:1020B0000895F8949091840180918501891789F0A1
:1020C000E92FF0E0E857FE4F80819F5F9F7190936A
:1020D00084018A3049F49091830191509093830157
:1020E00003C01092830180E0789408959091870155
:1020F00080918601981313C50895CF93DF93D82F4D
:10210000C0E0CD17D9F0D5DF90ED980F9A3030F0C0
:102110009FE9980F9630B0F499EA980FEC2FE69566
:10212000F0E0E058FE4FC0FF04C02081290F20835B
:1021300003C09295907F9083CF5FE3CFBADF8A3060
:1021400009F480E0DF91CF910895F8949091870190
:10215000492F50E09A012F5F3F4F2F77332760912F
:10216000860170E02617370749F0FA01E855FE4F5F
:10217000808381E0890F8F77809387017894089519
:10218000CF93DF93EC01FE018491882319F0DDDF0A
:102190002196F9CFDF91CF910895A1E0B0E0E2ED73
:1021A000F0E17BC6843638F064E6E9D5805D99833A
:1021B000CCDF9981892F6AE0E2D5805D9983C5DF04
:1021C000998180E3890FC1DF2196E2E082C6CF9337
:1021D00064E670E0EDD5C82F862FDFDF8C2FDDDFC2
:1021E000CF910895CF93C82F82958F708A3010F0C9
:1021F000895A01C0805DA9DF8C2F8F708A3010F062
:10220000895A01C0805DA1DFCF910895CF93C82F77
:10221000892FE8DF8C2FE6DFCF91089596DF8BE5DD
:1022200094DF80918001DEDF8DE58FDF8DE38DCF40
:102230009091860180918701891751F0E92FF0E094
:10224000E855FE4F80819F5F9F77909386010895A8
:1022500080E008958823F1F08D3009F48AE09091B0
:102260008501E92FF0E0E857FE4F80839F5F9F7163
:102270009093850120918401921304C09F5F9F7108
:10228000909384018A3031F4F69A809183018F5FB4
:1022900080938301089582ED91E072DF80E895E2FA
:1022A00020D424CFCF93C82F8EEC91E069DF8091AA
:1022B0008A02805397DF80E248DF809190026DDFD1
:1022C0008EE243DF8091920268DF8EE23EDF8091F2
:1022D000930263DF80E239DF80918F025EDF8AE361
:1022E00034DF8091880259DF8AE32FDF80919102E9
:1022F00054DF80E22ADF80910C01882311F081E411
:1023000001C08DE422DF89EC91E03ADFC7FD02C015
:102310008C2F02C080910E0140DF84EC91E030DF11
:10232000809113019091140152DF8FEB91E028DF2F
:1023300080910D018D3320F08AEB91E021DF05C003
:1023400022E3829FC001112442DF85EB91E018DF78
:1023500080911101909112013ADF8FEA91E010DF34
:10236000809128029091290251DF80912E028823CA
:1023700031F08BEA91E004DF80912E0233DFC7FF5A
:1023800003C088EA91E0FCDE80912F02882319F0D7
:1023900085EA91E0F5DE8AE0D8DEA8DECF910895E7
:1023A000CF9380918301882309F4DBC082DEC82F9C
:1023B000482F50E0FA01E154F109E931F10508F044
:1023C000CEC0E45AFF4F90C574DE8A3009F0C7C012
:1023D00082ED91E0D5DEC3C06CDE8A3009F0BFC06B
:1023E00083C082E08ADE8111B8C084E517DF809166
:1023F0008001D5D056C0873429F482E07EDE811179
:10240000ACC010C084E079DE8111A7C0809180014A
:10241000873240F4E82FF0E0E956FD4F90918101BA
:10242000908382D88C2FFADEE0918001EF3F11F487
:1024300088E004C0F0E0E956FD4F8081D3DE8DC016
:10244000823529F482E059DE811187C01BC086E005
:1024500054DE811182C04091810180918001242F3E
:1024600022952F704F7050E0542F44279091820195
:10247000490F511D682F6F7082958F700E9458050B
:10248000109230028C2FCADE80918001282F229575
:102490002F708F7090E038E0239F800D911D1124E4
:1024A000A2D8B4DE5AC086E028DE811156C08091E1
:1024B00080010E946E06809181010E9466068091D3
:1024C00082010E94570610C086E017DE811145C0C8
:1024D000809180010E944305809181010E944A05FC
:1024E000809182010E9451058FEFDCDE38C084E0CC
:1024F00004DE811132C080918001833171F58091B9
:102500008101843251F5F89428E088E190E00FB61B
:10251000F894A895809360000FBE20936000FFCFD1
:1025200082E0EBDD811119C081E090918001913052
:1025300009F080E027D211C082E0DFDD81110DC0FB
:102540008091800197EF980F953338F49AE090933B
:102550000901809331028FEFA5DE8AE0F6DDC6DD4A
:1025600020CFCF9108951F93CF93DF93EB01142FCA
:10257000181614F48BE203C0882311F08DE2E5DD18
:1025800080E2E3DDCE0142DE80E2DFDD812F2ADE64
:102590008AE0DBDDABDDDF91CF911F9108958D30B7
:1025A00088F4E82FF0E0EE0FFF1FEA5EFD4FA591E3
:1025B000B491B7FF04C0BF778D919C9108958C9121
:1025C00090E0089580E090E008950F931F93CF93DB
:1025D000DF93C62F90913002811102C0911119C072
:1025E00081E0911101C080E00E947106882389F08A
:1025F0008093300290910C01992359F0809331021D
:102600009091090197FF05C090910D0189131092D7
:10261000090110913502812F90E08096D0912F0210
:10262000DD2319F02091BC0202C02091BB0230E0F2
:10263000821B930B60E270E0CFD340E050E060E19A
:1026400077E2A82FB0E0FD01EE0FFF1FEA5CFD4F1F
:10265000208131812115310541F0261737070CF40F
:10266000B901421753070CF4A901811721F0119603
:102670008A2F8F71E6CF2091130130911401C90187
:10268000861B970BBC018091BA0290E086179707D2
:102690002CF4DD2391F010922F020DC0D1110DC04A
:1026A000421B530B8091B90290E0841795072CF4DC
:1026B00081E080932F021092090180910A0190918C
:1026C0000B01009729F0019790930B0180930A0169
:1026D0008091090118161CF48150809309018091A2
:1026E0000A0190910B01009721F0409109014111DD
:1026F0000EC1009131020A3010F40AE004C040918A
:102700002F024111FACF40910D01041739F00093C7
:102710000D01109229021092280203C0892B09F0A2
:10272000F1C08091A00245E0849FC00111249093E4
:102730000B0180930A010D3308F0BDC052E3059FE1
:1027400080011124021B130B003388EF180714F4C7
:1027500000E318EF013D97E0190714F000ED17E0D2
:1027600080912A0290912B02D0919D02009709F44A
:102770003DC0821B930B71F4C80117FF04C088276A
:102780009927801B910B40919F0250E048175907F1
:1027900054F02CC01816190624F4101611061CF05B
:1027A00025C017FF23C06D2F70E080E092E314D3A3
:1027B0008091280290912902601771073CF4680FFC
:1027C000791F709329026093280210C0442755276F
:1027D000461B570B041715071CF4861B970B02C0EA
:1027E000800F911F909329028093280230932B022F
:1027F00020932A0280919E02E82FF0E0882329F09E
:1028000080E092E3BF01E8D202C060E072E3809111
:102810002802909129026817790734F07195619523
:1028200071098617970724F4709329026093280290
:1028300020919C02D80117FF04C0AA27BB27A01B28
:10284000B10B30E090D29B01AC018D2F90E0982F1E
:102850008827280F391F411D511DD8018AD2472FC3
:10286000582F692F772767FD7A95809128029091DC
:102870002902E89F8001E99F100DF89F100D112497
:10288000222717FD2095322F400F511F621F731F03
:102890000091A20210E0102F0027222717FD20959B
:1028A000322F400F511F621F731F413024E6520721
:1028B000610571051CF0C091A30224C077FF03C01D
:1028C000C091A1021FC03C2F20E03203C001931B26
:1028D0001124840F951F81509F4F8F3F914090F09E
:1028E000452F550F550BC091A3028C2F90E08417F4
:1028F000950744F0C091A1028C2F90E0481759072A
:102900000CF0C42F8FEF809309018C2FCBDC8091CA
:102910001101909112012091B80244E1249F90018D
:10292000112440912E028217930710F4406C0DC0C1
:102930002091B70254E1259F90011124821793073B
:1029400018F44F77406401C04F7340932E028C2FD0
:10295000DF91CF911F910F91089590913102980FBF
:10296000993010F489E006C09E3318F49093310238
:1029700003C08DE38093310210922F028AE080938E
:10298000090108958F3F49F49091310290932D02EF
:102990009091300290932C020AC08E3F99F490914E
:1029A0002D029093310290912C029093300291E08D
:1029B00020910C01211190E090930C019AE09093EA
:1029C000090104C080930C011092090190910C013F
:1029D000992349F08E3F39F080E00E947106809380
:1029E00030028093310210922F0208951F920F92AD
:1029F0000FB60F9211242F933F934F935F936F93D2
:102A00007F938F939F93AF93BF93EF93FF938091A7
:102A1000C60020DCE1ECF0E080818F768083EBE67D
:102A2000F0E0808181608083FF91EF91BF91AF9151
:102A30009F918F917F916F915F914F913F912F91D6
:102A40000F900FBE0F901F9018951F920F920FB608
:102A50000F9211242F933F934F935F936F937F9324
:102A60008F939F93AF93BF93EF93FF93E1DB882303
:102A700019F08093C6000FC08091C1008F7D8093B4
:102A8000C1008091C00080648093C0008091C1002B
:102A900080648093C100FF91EF91BF91AF919F91AE
:102AA0008F917F916F915F914F913F912F910F90F7
:102AB0000FBE0F901F9018951F920F920FB60F9296
:102AC00011248F93EF93FF93E1ECF0E08081877BFB
:102AD0008083FF91EF918F910F900FBE0F901F9009
:102AE00018959C0140E050E084E0220F331F441F02
:102AF000551F8A95D1F760E079E08DE390E07FD1B2
:102B0000215031093093C5002093C40086E08093A2
:102B1000C200EBE6F0E08081816080830895F89444
:102B20008091C10085FD0FC08091C1008F7B809393
:102B3000C1008091C00080648093C0008091C1007A
:102B400088628093C1007894089580E88093610042
:102B500091E09093610080BF8FEF80937E008DE0C5
:102B60008093640088E183BB8EE08DB993E09EB9C9
:102B700098E090BB93EF91BB85B981ED84B98EE26B
:102B800080936C0080EC8DBB0E94200623B130E066
:102B9000209530952E70332781E02E30310509F0D5
:102BA00080E00E94C80A81E00E94C8070E9481025A
:102BB00083B1809580768093BE021EBA789488E5B2
:102BC00091E00E947E0A883039F063E082E10E9441
:102BD000DD030E943504FFCF5EDB16E0C1E007E0B5
:102BE00083E0F82EF8948EB3811126C08091B60050
:102BF000877011F584B5877021F48091C1008871C8
:102C000011F0C3BF07C080915A01882311F0F3BEB1
:102C100001C003BF80915A01882339F010925A01F4
:102C200080917A00806480937A0072987894889575
:102C30000000729A13BF01C07894F39B04C0F3980C
:102C40000E943504CFCFF29B04C0F2980E94AF01DE
:102C5000C9CFF69B03C0F698A3DBC4CFF59B04C095
:102C6000F5980E94D808BECFF49B08C0F4980E9443
:102C7000100C0E94C8070E948408B4CFF09B03C0C8
:102C8000F0980E94310BF19B3CC0F1980E94B00675
:102C9000D82F60910E0199DC80930E01DD2371F035
:102CA00080918A02863051F480918F028A3031F40B
:102CB00080918802811102C00E94C8070E94100CF6
:102CC0000E94C80780910E010E9441080E94B90B22
:102CD00080919402882319F08091BD0281110E9495
:102CE0009E018091070187FD03C0815080930701F9
:102CF00080E03ED88091E40088608093E400C09337
:102D00005C018091730190917401892B21F4809171
:102D10000701811167CF80E00E947D0CD82F8823A6
:102D200019F081E00E947D0C8D2F22D88091E40063
:102D300088608093E400C0935C0154CF05D03323B6
:102D400012F48A1B9B0B10C0A29FB001B39FC0015D
:102D5000A39F700D811D1124911DB29F700D811DC7
:102D60001124911D0895F0DFB7FF0895821B930B86
:102D70000895B7FFBFC0BED0821B930B0895991B67
:102D800079E004C0991F961708F0961B881F7A9562
:102D9000C9F78095089587FB082E062687FD819543
:102DA00067FD6195ECDF0EF4919507FC8195089520
:102DB000AA1BBB1B51E107C0AA1FBB1FA617B70761
:102DC00010F0A61BB70B881F991F5A95A9F780957D
:102DD0009095BC01CD01089597FB072E16F4009441
:102DE00006D077FD08D0E4DF07FC05D03EF49095CF
:102DF00081959F4F0895709561957F4F0895A1E249
:102E00001A2EAA1BBB1BFD010DC0AA1FBB1FEE1F64
:102E1000FF1FA217B307E407F50720F0A21BB30BAF
:102E2000E40BF50B661F771F881F991F1A9469F72B
:102E300060957095809590959B01AC01BD01CF0187
:102E40000895052E97FB16F400940FD057FD05D07A
:102E5000D6DF07FC02D046F408C050954095309567
:102E600021953F4F4F4F5F4F0895909580957095F6
:102E700061957F4F8F4F9F4F08952F923F924F92B2
:102E80005F926F927F928F929F92AF92BF92CF92FA
:102E9000DF92EF92FF920F931F93CF93DF93CDB703
:102EA000DEB7CA1BDB0B0FB6F894DEBF0FBECDBF7B
:102EB00009942A88398848885F846E847D848C844C
:102EC0009B84AA84B984C884DF80EE80FD800C8155
:102ED0001B81AA81B981CE0FD11D0FB6F894DEBF38
:102EE0000FBECDBFED010895EE0FFF1F0590F491C9
:102EF000E02D099429DFA59F900DB49F900DA49F0C
:0C2F0000800D911D11240895F894FFCF5E
:0E2F0C0001010205FEFF01022710100001FF67
:00000001FF
